:020000040800F2
:100000009830002089010008010800089B070008BB
:10001000FD070008F7020008AF28000800000000F4
:10002000000000000000000000000000692100083E
:10003000A503000800000000170200085522000870
:10004000A3010008A3010008A3010008A301000800
:10005000A3010008A3010008A3010008A3010008F0
:10006000A3010008A3010008A3010008A3010008E0
:10007000A3010008A3010008A3010008A3010008D0
:10008000A3010008A3010008A3010008A3010008C0
:10009000A3010008A3010008A301000865040008EB
:1000A000A3010008A3010008A3010008A3010008A0
:1000B000A3010008A3010008A3010008A301000890
:1000C000A3010008A3010008A3010008A301000880
:1000D000A301000879260008A3010008A301000875
:1000E000A9030008A3010008A301000800F002F81A
:1000F00000F03AF80AA090E8000C82448344AAF188
:100100000107DA4501D100F02FF8AFF2090EBAE885
:100110000F0013F0010F18BFFB1A43F0010318473B
:100120001833000038330000103A24BF78C878C173
:10013000FAD8520724BF30C830C144BF04680C60ED
:10014000704700000023002400250026103A28BF35
:1001500078C1FBD8520728BF30C148BF0B60704739
:100160001FB51FBD10B510BD00F08BF81146FFF78D
:10017000F7FF02F0AFFC00F0A9F803B4FFF7F2FFBD
:1001800003BC00F0B1F80000094880470948004767
:10019000FEE7FEE7FEE7FEE7FEE7FEE7FEE7FEE737
:1001A000FEE7FEE704480549054A064B7047000094
:1001B00065220008ED000008982A002098300020F1
:1001C000982C0020982C0020EFF3108072B6704716
:1001D00080F310887047204C204D25604FF00004BC
:1001E00084F309881E4C4FF0010525701D4C4FF01B
:1001F0008055256062B6FEE730B41A4C4FF080554A
:10020000256030BC704730B4164C4FF080552560E7
:1002100030BC704700BF72B6EFF3098028B12038B8
:1002200080E8F00F10490968086000B50F48804762
:100230005DF804EB0E480F490A7802700A480E492F
:100240000A680260106890E8F00F203080F3098897
:100250004EF0040E62B6704720ED00E00000FFFF94
:100260009A00002004ED00E0A0000020B113000877
:100270008F00002090000020A800002070477047E9
:100280007047754600F02CF8AE46050069465346A7
:1002900020F00700854618B020B5FFF783FFBDE8C2
:1002A00020404FF000064FF000074FF000084FF0DD
:1002B000000B21F00701AC46ACE8C009ACE8C0096E
:1002C000ACE8C009ACE8C0098D46704710B50446DB
:1002D000AFF300802046BDE81040FFF74EBF00009E
:1002E00000487047382A002001491820ABBEFEE7BD
:1002F00026000200704700BFFEE700000EB5012097
:10030000204908603DE0204A00212048006800F0B4
:100310007FFB1C48006801281DD11D480068D0B92A
:1003200019481CA100221D4BCDE900210290012299
:100330001421002001F002F91949086012491848F7
:10034000006801F037F90120114908600F48006882
:1003500000F07AFC15E00B48006801280AD10C482F
:100360000068012806D102F0DBFD0848006800F0B3
:100370006BFC06E00548006800F066FC052002F012
:10038000C7FAC0E754000020700000206000002081
:1003900068000020746D723100000000FD2F00081D
:1003A0006C0000207047000010B54FF480512A48BF
:1003B00000F0E6F960B14FF48041274800F0E0F921
:1003C00030B14FF40041244800F0DAF9002836D16A
:1003D00022480078303820B1204800783038012891
:1003E0002DD101201E4908601C480078303898B98A
:1003F000012002F097FB0021084602F089FC002151
:10040000012002F085FC0021022002F081FC002185
:10041000032002F07DFC12E0002002F083FB0021AB
:10042000084602F075FC0021012002F071FC002159
:10043000022002F06DFC0021032002F069FC4FF461
:10044000805000F059F84FF4804000F055F84FF418
:10045000004000F051F810BD000C0140D800002011
:100460005C00002010B54FF48071204800F088F93E
:10047000002836D11E480078303820B11C4800785A
:10048000303801282DD101201A4908601848007819
:10049000303898B9012002F045FB0021084602F0EF
:1004A00037FC0021012002F033FC0021022002F081
:1004B0002FFC0021032002F02BFC12E0002002F0B0
:1004C00031FB0021084602F023FC0021012002F04C
:1004D0001FFC0021022002F01BFC0021032002F07F
:1004E00017FC4FF4807000F007F810BD00080140C1
:1004F000D80000205C00002001490860704700001F
:1005000014040140002123498279002A3AD00A4686
:10051000126803689A430B461A600A1D1268036842
:100520009A430B1D1A60027911440A6803681A4342
:100530000A60184A0832126803689A43154B083358
:100540001A601A1D126803689A43124B0C331A6022
:100550004279102A0ED11A1F126803681A430D4BF4
:1005600008331A601A1D126803681A43094B0C33CA
:100570001A600DE00749427911440A6803681A437A
:100580000A6005E0027911440A6803689A430A6028
:10059000704700000004014030B500228B071C0F9B
:1005A0000F2303FA04F20B4B8C1053F824309343BF
:1005B000084C8D1044F8253023468C1053F8243015
:1005C0008C07240F00FA04F42343024C8D1044F8E6
:1005D000253030BD080001402DE9F04102460025DC
:1005E0000026002000230024002791F803C00CF00F
:1005F0000F0591F803C00CF0100CBCF1000F03D0F4
:1006000091F802C04CEA050591F800C0BCF1000F5A
:1006100031D0146800202BE04FF0010C0CFA00F3ED
:10062000B1F800C00CEA03069E4220D183004FF0CF
:100630000F0C0CFA03F7BC4305FA03FC4CEA040464
:1006400091F803C0BCF1280F06D14FF0010C0CFA51
:1006500000FCC2F814C00AE091F803C0BCF1480FD6
:1006600005D14FF0010C0CFA00FCC2F810C0401C80
:100670000828D1D31460B1F800C0BCF1FF0F34DDFD
:10068000546800202EE000F1080C4FF0010808FA31
:100690000CF3B1F800C00CEA03069E4221D183009E
:1006A0004FF00F0C0CFA03F7BC4305FA03FC4CEABD
:1006B000040491F803C0BCF1280F05D100F1080C27
:1006C00008FA0CF8C2F8148091F803C0BCF1480F86
:1006D00007D100F1080C4FF0010808FA0CF8C2F835
:1006E0001080401C0828CED35460BDE8F081000083
:1006F000F0B50A46002300240021002500F0004642
:10070000B6F1004F02D11D4EF16901E01B4E716838
:10071000C0F3034583B200F44016B6F5401F08D17C
:1007200021F07061154E766826F07066134F7E607A
:1007300012E000F48016B6F5801F06D1032606FAF3
:1007400005F4A14341F0706106E0460D360103FA5D
:1007500006F6B14341F0706122B1460D360103FA4D
:1007600006F6314300F00046B6F1004F02D1034EC9
:10077000F16101E0014E7160F0BD00000000014038
:100780000246002093680B400BB1012000E00020DE
:100790007047416170470161704700BFFEE700008C
:1007A00008B50121102001F065FC10208DF8030030
:1007B00003208DF802004FF40050ADF800006946A8
:1007C0000B48FFF709FF12E00A4A00210A480068B7
:1007D00000F01EF94FF400510548FFF7DAFF064814
:1007E000006800F031FA4FF4167002F091F8EBE770
:1007F00000100140700000206400002000BFFEE7F0
:100800007047000070B5002100230F22C47804B3A4
:10081000154C246804F4E064C4F5E064210AC1F1D5
:100820000403CA40447804FA03F184781440214355
:1008300009010E4C0678A155047804F01F05012427
:10084000AC4005786D11AD0005F1E025C5F800411B
:1008500009E0047804F01F050124AC40044D06783B
:10086000761145F8264070BD0CED00E000E400E094
:1008700080E100E002490143024A11607047000034
:100880000000FA050CED00E010B500F015F801F0DD
:1008900065F901F08DF901F0ADF901F035F901F0DC
:1008A00007F901F041FA01F0E5F901F00BFA00F067
:1008B0003FFF00F007F810BD002001490880704795
:1008C000D40000207047000006480078012808D1B5
:1008D00005480078FF2804D203480078401C0249EC
:1008E000087070479A0000208D00002010B5002489
:1008F0001A480078012830D1FFF766FC04461848F2
:10090000007820B116480078401E15490870144838
:100910000078F8B913480078E0B901F067FA124896
:100920001249097850F82100114908600F480078F1
:100930001049097888420DD00D480068806B401C32
:100940000B49096888630C480068401C0A49086024
:10095000FFF759FC2046FFF73BFC10BD9A00002032
:100960008D0000208E00002010200020900000202C
:10097000A80000208F000020740000202DE9F04125
:1009800005460E4600271F48007820B11020307021
:100990000020BDE8F081FFF717FC07461A4850F821
:1009A000250030B13846FFF713FC282030700020B6
:1009B000EFE70120144941F82500144804684CB9B8
:1009C000002041F825003846FFF702FC0420307073
:1009D0002046DEE70D48006840680C49086038464C
:1009E000FFF7F6FB04202070FF2040EA052020815D
:1009F00000206060204601F04DF800203070204655
:100A0000C7E700008D0000201020002078000020A3
:100A10002DE9F74F82B0054617460020019028784F
:100A2000042804D00120387005B0BDE8F08F80485C
:100A3000007810B102203870F6E77E48007810B1D7
:100A40000D203870F0E7FFF7BFFB019028894FEACF
:100A50002029287AFF281FD1288900F47F40288187
:100A600028897549096891F832100843288172482D
:100A7000006868607048006890F83200484505DCFE
:100A80000198FFF7A5FB7820387004E00198FFF784
:100A90009FFB00203870C7E795F808B06C6894F8A1
:100AA000320048457ADD6448006890F832005845C5
:100AB00074DA94F83480614810F8080094F835101E
:100AC0000840B0B15D4810F8080094F8351088432C
:100AD0005A4901F80800084610F8080030B994F89F
:100AE0003610574800788843554908704FF0010A7E
:100AF00019E0E669AEB194F8348006F10B0010F805
:100B0000080094F83510884306F10B0101F808003D
:100B1000084610F8080020B9B07A94F836108843D7
:100B2000B0724FF0000A04F8329F2078C010A07015
:100B3000207800F007006070A178012088402071C3
:100B4000617801208840E070323CBAF1010F10D189
:100B50003434A0783A490978084339490870207834
:100B60003649085C6178084314F83419334A505404
:100B700011E0E6697EB1B07A3434A1780843B072EE
:100B8000217806F10B00405C6178084314F83429A1
:100B900006F10B0188542B4840F82940264800688C
:100BA00090F8300040F010002349096881F83000C7
:100BB00000202149096881F831001F49039809681C
:100BC000C862284600F028FF0198FFF701FB01F0FA
:100BD000D3F8FFF7F9FA01901748006890F8310050
:100BE00020B1012809D0022806D102E00020387087
:100BF0000BE00E20387008E000BF29460E48006860
:100C000000F0F4FE0A20387000BF00BF00200A493F
:100C1000096881F830000849096881F831000649FF
:100C20000968C8610198FFF7D3FA00BFFCE600002D
:100C30008D0000208E000020A000002092000020E7
:100C400091000020102000202DE9F04104460027EB
:100C50002C48007810B10520BDE8F08120780428E8
:100C600001D00120F8E7FFF7AFFA07462089061206
:100C7000257A254960680968884204D03846FFF71C
:100C8000A7FA6420E8E72048006890F83200B042F4
:100C900004D129461C48006800F03AF801201B499D
:100CA00041F82600A07A08B30023102219462046F6
:100CB00000F05AFE0546208900F47F4020812089FB
:100CC00028432081114850F825006060B54206DCB9
:100CD0003846FFF77DFA01F04FF87820BCE7384638
:100CE000FFF776FA01F048F80020B5E7208940F0D8
:100CF000FF002081002060603846FFF769FA00207D
:100D0000AAE700008D000020A00000201020002095
:100D100030B590F834201B4B9B5C90F83540A343D2
:100D2000184CA35423469B5C33B990F83640164BBD
:100D30001B78A343144C237000F8321F134B197017
:100D4000C1F3C203837001F0070343708478012369
:100D5000A340037144780123A340C37003790A4C74
:100D600024782343084C23708378064CE35CC478D2
:100D7000234384783238034D2B55054B43F821002B
:100D800030BD000092000020910000208F00002064
:100D90001020002010B500240B480078012811D144
:100DA000FFF712FA04460948007840B9084800786D
:100DB000FF2804D206480078401C054908702046E8
:100DC000FFF706FA10BD00009A0000208D000020F9
:100DD0008E00002010B5002413480078012821D18E
:100DE000FFF7F2F9044611480078C0B10F480078C7
:100DF000401E0E4908700846007860B90C4800781B
:100E000028B92046FFF7E4F900F0B6FF0AE02046D3
:100E1000FFF7DEF906E02046FFF7DAF902E02046A8
:100E2000FFF7D6F910BD00009A0000208E000020C8
:100E30008D00002070B5054600260F48007808B1E7
:100E4000002070BDFFF7C0F906460C480468006832
:100E500020B10A4800684068084908603046FFF73A
:100E6000B7F93CB103202070258100206060204646
:100E700000F010FE2046E4E78D00002078000020FE
:100E80002DE9F04105460E46144600272878032830
:100E900003D001202070BDE8F0813148007810B106
:100EA00002202070F7E72F48007810B10D20207045
:100EB000F1E7FFF789F90746288940B12889401EE4
:100EC00028813846FFF784F900202070E3E72648A0
:100ED000006890F8300040F001002349096881F86B
:100EE000300000202049096881F831001E48006860
:100EF000C662284600F090FD3846FFF769F900F019
:100F00003BFFFFF761F907461748006890F831008A
:100F100020B1012809D0022806D102E0002020706B
:100F20000BE00E20207008E000BF29460E48006844
:100F300000F05CFD0A20207000BF00BF00200A49BD
:100F4000096881F830000849096881F831000649CC
:100F50000968C8613846FFF73BF900BF9BE700000E
:100F60008D0000208E000020A000002070B50446F7
:100F700000252078032801D0012070BDFFF724F957
:100F80000546A07A60B1002301221946204600F0F0
:100F9000EBFC2846FFF71CF900F0EEFE0020ECE722
:100FA00020894FF6FF71884207D22089401C20819A
:100FB0002846FFF70DF90020DFE72846FFF708F97C
:100FC0003320DAE710B50B48007890B900F00EFF37
:100FD000094800780949087009480749097850F814
:100FE0002100084908600846006807490860FFF7C3
:100FF000F2F810BD9A000020900000208F00002021
:1010000010200020A8000020A00000207047000051
:101010002DE9FE4F06460F4690461C464FF000094C
:10102000FFF7D2F881461F48007828B14846FFF7FD
:10103000CFF83C20BDE8FE8F1B4850F8240060BB71
:101040000120194941F824004846FFF7C1F8002360
:1010500042463946304600F009F9824600200090A9
:1010600001900346024651460290204600F0D4FE0D
:10107000054635B90D48007801280CD100F07CFEFA
:1010800009E0FFF7A1F881460020074941F8240054
:101090004846FFF79DF82846CCE74846FFF798F802
:1010A0002820C7E78D000020102000209A00002093
:1010B0002DE9F04F85B081468A4693461C46DDE90E
:1010C0000F78129D00200390FFF77EF803902348CD
:1010D000007830B10398FFF77BF83C2005B0BDE8FD
:1010E000F08F1F4850F8240088BB01201C4941F8AC
:1010F00024000398FFF76CF82A464146384600F072
:101100009BFF2B465A465146484600F0AFF80490E4
:101110001198CDE9008002953A4620460E9B04992D
:1011200000F07AFE064636B90E48007801280CD148
:1011300000F022FE09E0FFF747F80390002008497D
:1011400041F824000398FFF743F83046C6E7FFE76D
:101150000398FFF73DF82820C0E700008D0000202D
:10116000102000209A000020704770472DE9F041C0
:1011700006460F4614464FF000081548007818B18F
:1011800012202070BDE8F081FFF71EF88046FF2E88
:1011900003D11048006890F832600F4850F826508C
:1011A0002DB94046FFF714F843202070EAE7012DDF
:1011B00005D14046FFF70CF843202070E2E7EF64CA
:1011C0004046FFF705F80020207000BFDAE7000076
:1011D0008D000020A000002010200020704700009B
:1011E0002DE9F04707460D464FF0000A0020286021
:1011F0006860FEF7E9FF8246FF2F03D119480068B7
:1012000090F83270184850F827402CB95046FEF735
:10121000DFFF4320BDE8F087012C04D15046FEF7E4
:10122000D7FF4320F6E7207C00F0010020B95046AC
:10123000FEF7CEFF4520EDE70026D4F80C90D4F859
:1012400008805046FEF7C4FF00E0761C58F8041BE7
:101250000029FAD0B0002860A9EB06008000686081
:101260000020D7E7A00000201020002070B5044621
:1012700010464FF080750560051F28462C606FF002
:101280000106051F28462E604FF01236051F28461E
:101290002E604FF00336051F28462E604FF00236B1
:1012A000051F28462E607610051F28462E60051F54
:1012B000284629604FF01136051F28462E604FF052
:1012C0001036051F28462E604FF00936051F2846A8
:1012D0002E604FF00836051F28462E604FF0073667
:1012E000051F28462E604FF00636051F28462E6043
:1012F0004FF00536051F28462E604FF00436051FB7
:1013000028462E6070BD00002DE9F04105464FF0E3
:101310000008FEF759FF8046FF2D05D120480068E0
:1013200090F83250012608E01D48006890F832001D
:10133000A84201D1012600E000261A4850F82540B5
:101340002CB94046FEF744FF4820BDE8F081012C4F
:1013500004D14046FEF73CFF4320F6E794F8347092
:101360001148C05D94F8351088430F49C8550846A8
:10137000C05D30B994F836100C48007888430B49AA
:10138000087094F8300040F0080084F830004046BF
:10139000FEF71EFF012E01D100F0EEFC0020D4E785
:1013A000A0000020102000209200002091000020CA
:1013B0007047000070B5054600261748007800B158
:1013C00070BD1648007800B1FAE71DB3FEF7FCFEC9
:1013D00006461348006890F834401248005D1049F2
:1013E000096891F8351088430E4908550846005D94
:1013F00040B90B48006890F836100B4800788843D5
:101400000949087006480068C5623046FEF7E0FEEC
:1014100000F0B2FC00BFD3E78D0000208E0000205A
:10142000A0000020920000209100002070B500264E
:1014300000F072F8FEF7C8FE064631480068401C0E
:101440002F4908603046FEF7C3FE2E480078012879
:1014500053D12D48007820B1012804D0022809D1A9
:1014600003E001250BE0002509E0012501202649C4
:10147000087004E0012500202349087000BF00BF68
:1014800005B970BD2148046833E0FEF79DFE0646AD
:10149000E06A50B3E06A401EE062E06A28BB94F85C
:1014A000300000F0370040B114F8300F00F0C800F1
:1014B000207001206070303C02E0002084F8310090
:1014C00094F8300000F0080078B93434A07810495E
:1014D000097808430E49087020780E49085C617845
:1014E000084314F834190B4A505464693046FEF727
:1014F0006FFE94F832003F28C7D100BFC1E700005B
:10150000B80000209A000020B0000020AC000020AD
:10151000910000209200002010B507480088401C70
:101520000549088008460088142803D30020088055
:1015300000F036F810BD0000D40000202DE9F05F67
:1015400006460F4690469946DDE90AAB0C9D1348C6
:10155000007820B18B2028700020BDE8F09FFFF7B5
:1015600019FC00F0C5F804462CB9FFF733FC8620BF
:1015700028700020F1E7012084F82500A661E761CA
:1015800084F82480C4F80490C4F808A0C4F820B0FB
:10159000FFF720FC002028702046DEE78D000020A9
:1015A00010B503480068FFF7E1FC0446204610BD73
:1015B000C800002070B505460C462878642803D082
:1015C00089202070002070BD1A48007818B18B2047
:1015D00020700020F7E7FFF7DDFB95F82500E8B164
:1015E000012810D002280FD003281DD1284600F072
:1015F00099F90021284600F01FF9FFF7EBFB0020C6
:1016000020700120DFE700BF0021284600F014F918
:10161000FFF7E0FB002020700120D4E7FFF7DAFBA2
:10162000872020700020CEE7FFF7D4FB8D202070AC
:101630000020C8E78D0000202DE9F04105460F4647
:1016400090461C462878642804D089202070002009
:10165000BDE8F0812548007818B18B20207000206B
:10166000F6E7FFF797FB95F82500002832D0012810
:101670002AD0022827D0032832D1284600F052F978
:1016800000202070B7B1032F02D0042F13D108E03F
:101690006E681EB12846A968B04701E08F2020700F
:1016A0000CE06E681EB141462846B04701E08F202D
:1016B000207003E002E08420207000BF00BFFFF72D
:1016C00089FB0120C4E700BFFFF784FB8E20207058
:1016D0000120BDE7FFF77EFB872020700020B7E7E1
:1016E000FFF778FB8D2020700020B1E78D000020EF
:1016F0000C48006808B9002070470A480168094A88
:10170000C86810600020C860086107480088401C55
:10171000054A108005480088401E044A108008468B
:10172000EAE70000CC000020BE000020BC00002042
:101730002DE9F0414FF42071224800F0EBFA4021EE
:10174000214800F0E7FA002514E0681C86B205EB9A
:1017500085001C4901EBC00406EB860001EBC007C5
:1017600064202070002084F82500E76017A0206224
:10177000681C85B20F2DE8D305EB8500114901EBFC
:10178000C00464202070002084F82500E0600FA0D1
:10179000206200200E4908600E49088010200E4982
:1017A000088008480D4908600120FFF743FB0C49F9
:1017B00008600020FFF73EFB0A49086000F014F8BB
:1017C000BDE8F08178250020F82900203F000000C6
:1017D000C0000020BE000020BC000020CC00002083
:1017E000C4000020C800002000B587B003200021FD
:1017F00080220A4BCDE90132CDE903104FF6FD708E
:101800000623074A00900748FFF752FC06AA06A1E4
:101810000620FFF7ABFC07B000BD0000F827002052
:10182000F4290020A518000875432F4F532D49496E
:1018300020546D720000000070B50B46032580F83F
:101840002550012B05D1154EC569366835444561D3
:101850000CE085692DB9114EC5693668354445617E
:1018600004E00E4E8569366835444561057D05F016
:1018700007040B4D05EBC4010D682DB90860002568
:10188000C56001258D8006E00A680860C2601061AD
:101890008D886D1C8D800025056170BDC000002005
:1018A000F829002008B500BF00BF6A4600211A4889
:1018B0000068FFF7E5FAFFF76DFA18480068401C6A
:1018C000164908600846007800F00708144800EB45
:1018D000C8073C681AE0E6681049606909688842F0
:1018E00013D1204600F01EF894F82400022804D1F9
:1018F00001212046FFF7A0FF02E0022084F8250026
:10190000656815B12046A168A8473446002CE2D18D
:10191000FFF760FAC9E70000C8000020C0000020FF
:10192000F829002030B5057D05F007040D4D05EBC5
:10193000C4031D68854205D1C168196039B100250D
:101940000D6104E00169C268CA6002B1116101253C
:1019500080F825500025C56005619D886D1E9D801D
:1019600030BD0000F82900202DE9F04F05460F4654
:1019700090469946A87A19490E5C05F10B00805DE6
:1019800011F800B00BEBC60000F0FF0A144850F845
:101990002A4000202034E0602760207C20EA0800F4
:1019A000207484F81190207C203C00F0080068B975
:1019B00094F836000B49097808430A4908700A4828
:1019C000805D94F83510084307498855294620461C
:1019D00000F00CF85046BDE8F08F000038330008E6
:1019E00010200020910000209200002010B590F8F7
:1019F000342001F10B039B5C90F83540A34301F1C7
:101A00000B04A35423469B5C23B98B7A90F8364091
:101A1000A3438B7210BD000010B51B4A1268D06141
:101A2000194A126892F8343000F10B02D25C164B5E
:101A30001B6893F835301A43134B1B6893F83440F6
:101A400000F10B031A55827A0F4B1B6893F836305E
:101A50001A4382720C4A126892F834100B4A525C94
:101A6000094B1B6893F835309A43084B5A541A4671
:101A7000525C42B9044A126892F83630044A12782D
:101A80009A43034B1A7010BDA00000209200002062
:101A900091000020014600228A72002005E0002308
:101AA00001F10B021354421CD0B20828F7D370473F
:101AB0002DE9F0415021114800F02CF900250DE0EE
:101AC000681C86B20D4800EB051400EB06170020D9
:101AD000207067600AA0E060681C85B2042DEFD317
:101AE000064800EB051400202070606004A0E06050
:101AF000024804490860BDE8F0810000C01B0020D6
:101B00003F0000007C00002070B5C821114800F0A3
:101B100001F900230FE0581C85B203EB83000D4947
:101B200001EB800405EB850001EB800600202070AE
:101B30006660581C83B2092BEDD303EB8300054983
:101B400001EB8004002020706060084602490860B4
:101B500070BD0000F81A00207800002000200A491B
:101B600008600A4908700A4908700A4908700A4959
:101B700008700A4908600A4908600A4908600A4969
:101B800008600A4908707047B80000208D000020E6
:101B90008E0000209B0000209A000020740000208E
:101BA0009C00002088000020840000208C00002081
:101BB00000210A4A1170002004E00021084A115453
:101BC000411CC8B20828F8D30021064A1170064A01
:101BD0001170064A1160064A11607047910000209A
:101BE000920000208F00002090000020A80000201C
:101BF000A000002070B54FF47C71194800F08AF8FD
:101C00004FF48071174800F085F8002413E0601C41
:101C1000C5B2C4EBC40000EB4000114901EB8003E6
:101C2000C5EBC50000EB400001EB80065E610EA035
:101C3000D864601CC4B20B2CE9D3C4EBC40000EB25
:101C40004000074901EB80030020586106A0D864DA
:101C500000200649086002480549086070BD000080
:101C600010210020102000203F000000AC000020C8
:101C7000A400002000B587B00320002180220A4B79
:101C8000CDE90132CDE903104FF6FF703F23074A3B
:101C900000900748FFF70CFA06AA06A13F20FFF7BD
:101CA00065FA07B000BD0000101E00200C200020C7
:101CB0004D1F000875432F4F532D49492049646C2F
:101CC0006500000000B587B00320002180220A4B88
:101CD000CDE90132CDE903104FF6FE703E23074AED
:101CE00000900748FFF7E4F906AA06A13E20FFF797
:101CF0003DFA07B000BD0000101C00200C1E0020A3
:101D0000751F000875432F4F532D494920537461A7
:101D10007400000004E0002200F8012B4A1E91B27A
:101D20000029F8D1704700002DE9F04178211048D2
:101D3000FFF7F0FF00240DE0601C86B204EB4400C6
:101D40000B4901EBC00506EB460001EBC0072F6015
:101D5000601C84B2042CEFD304EB4400044901EB73
:101D6000C00500202860084602490860BDE8F081EF
:101D700000250020B400002010B50024FEF724FA4E
:101D8000044613480078F8B912480078E0B900F02A
:101D90002DF811481149097850F8210010490860C0
:101DA0000E4800780F49097888420DD00C48006829
:101DB000806B401C0A49096888630B480068401C16
:101DC00009490860FEF718FA2046FEF701FA10BD2F
:101DD0008D0000208E0000201020002090000020A8
:101DE000A80000208F000020740000200649074A48
:101DF0001278885C0649095C034A515C01EBC0011A
:101E0000044A117070470000383300089100002028
:101E100092000020900000202DE9F84F05460F4663
:101E200090469946DDE90AAB00200090FEF7CCF918
:101E300000903F480468002C74D0183454F8040C07
:101E40003B4908600098FEF7C3F944F8187CA57672
:101E5000002020766076606144F814BC44F80CAC35
:101E600044F8108C0C9824F8080C24F8069C0020E8
:101E7000E077E810207705F00700E076217F012069
:101E80008840A077E17E0120884060770020606074
:101E9000E060A0602062A0626062E062206325A032
:101EA0006063183C002606E0002104F1500040F871
:101EB0002610701CC6B2002EF6D02046FFF7A6F8FA
:101EC0002046FFF751F9FEF77FF900901A4840F8D5
:101ED00025401A48006860610020A061174800682A
:101EE00010B1164800688461144804603434A07846
:101EF0001349097808431249087020781149085C91
:101F00006178084314F834190E4A50540E4800788A
:101F1000401C0D4908700098FEF75AF90020BDE8F2
:101F2000F88FFFE70098FEF753F94220F7E700002B
:101F3000A40000203F00000010200020AC00002082
:101F400091000020920000209B000020002400BF90
:101F500000BFFEF739F9044605480068401C0449F3
:101F600008602046FEF734F9FFF7FFF8F1E70000BC
:101F70009C000020002400BF02E02820FFF71AFA8E
:101F8000194800780028F8D0184800686421B0FB90
:101F9000F1F0164908600846006828B90020144985
:101FA0000870FF20FFF7B0F900BFFEF70DF90446F7
:101FB000104800681049086000200E49086020465B
:101FC000FEF706F90C48006808490968B0FBF1F013
:101FD000C0F1640006490870FFF700F900F00EF840
:101FE0001420FFF7E7F9E0E78C00002084000020D0
:101FF000800000209C000020880000207CB5002587
:1020000014E069462846FFF7EBF8064666B909482A
:1020100050F8254044B1012C06D0D4E9020100EB70
:10202000810060640198A064681CC5B23F2DE8D9A6
:102030007CBD00001020002002F0010343B102F03B
:1020400002032BB102E0491E002308C00029FAD187
:102050007047000029B1064AD2690243044BDA6195
:1020600004E0034AD2698243014BDA617047000001
:102070000010024029B1064A92690243044B9A615A
:1020800004E0034A92698243014B9A617047000061
:102090000010024030B500210022002400232D4D05
:1020A0006D6805F00C0121B1042905D0082923D160
:1020B00005E0294D056022E0274D05601FE0254D14
:1020C0006D6805F47012234D6D6805F480340225A7
:1020D00005EB92421CB9214D554305600BE01D4DA7
:1020E0006D6805F400351DB11C4D5543056002E0D7
:1020F000194D5543056002E0174D056000BF00BF54
:10210000144D6D6805F0F0010909154D6B5C05680B
:10211000DD4045600F4D6D6805F4E061090A104D22
:102120006B5C4568DD4085600A4D6D6805F4605163
:10213000C90A0B4D6B5C4568DD40C560054D6D6897
:1021400005F44041890B074D6B5CC568B5FBF3F5A1
:10215000056130BD0010024000127A0000093D0008
:102160000000002010000020704710B500F002F8B9
:1021700010BD00000CB500200190009033480068AD
:1021800040F480303149086000BF3048006800F4F6
:10219000003000900198401C0190009818B90198F7
:1021A000B0F5A06FF1D12948006800F4003010B1FB
:1021B0000120009001E0002000900098012843D108
:1021C0002348006840F01000214908600846006874
:1021D00020F0030008600846006840F00200086034
:1021E0001A484068194948600846406848600846EF
:1021F000406840F4806048600846406820F47C10E5
:1022000048600846406840F4E810486008460068A6
:1022100040F08070086000BF0C48006800F000705B
:102220000028F9D00948406820F0030007494860B9
:102230000846406840F00200486000BF034840681C
:1022400000F00C000828F9D10CBD0000001002407D
:102250000020024010B5FEF737FBFFF7E7F8FEF766
:1022600045FB10BD10B51348006840F0010011494E
:10227000086008464068104908400E494860084612
:1022800000680E4908400B4908600846006820F4C1
:10229000802008600846406820F4FE0048604FF443
:1022A0001F008860FFF761FF4FF00060044908607D
:1022B00010BD0000001002400000FFF8FFFFF6FE16
:1022C00008ED00E021B1028842F08002028004E0C3
:1022D00002884FF67F731A400280704721B102884E
:1022E00042F00102028004E002884FF6FE731A40B9
:1022F0000280704770B5002400220023058C4FF641
:10230000FE7635400584028C8388048B4FF68F75EA
:102310002C40B51E2C400D882C43751E2A400D897B
:102320002A434D882A43144DA8420BD0134DA8428E
:1023300008D0134DA84205D0124DA84202D0124D2C
:10234000A84213D14FF6F7752A404D892A434FF61C
:10235000FB752A408D882A434FF6FF652B404FF6C8
:10236000FF552B408D892B43CD892B4383800483DC
:10237000CD888586028470BD002C01400034014068
:102380000040014000440140004801400A4600214D
:10239000018B4FF6F773194011430183704700001A
:1023A00070B5002400220023058C4FF6EF763540EF
:1023B0000584028C8388048B48F6FF752C404FF609
:1023C000FF452C400D884FF6FF7606EA05252C4385
:1023D0004FF6DF752A400D8906EA05152A434D8818
:1023E00006EA05152A43154DA84202D0144DA8420D
:1023F0001DD14FF67F752A404D894FF6FF7606EACC
:1024000005152A434FF6BF752A408D8806EA051543
:102410002A434FF6FF352B404FF2FF752B408D8935
:1024200006EA85052B43CD8906EA85052B43838083
:102430000483CD880587028470BD0000002C014014
:10244000003401400A460021018B4FF2FF7319400E
:102450004FF6FF7303EA022319430183704700001C
:1024600070B5002400220023058C4FF6FF6635402E
:102470000584028C8388848B4FF68F752C404FF631
:10248000FC752C400D882C434FF6FF552A400D89D2
:102490004FF6FF7606EA05252A434D8806EA05250C
:1024A0002A43154DA84202D0144DA8421DD14FF227
:1024B000FF752A404D894FF6FF7606EA05252A4327
:1024C0004FF6FF352A408D8806EA05252A434EF649
:1024D000FF752B404DF6FF752B408D8906EA0515DB
:1024E0002B43CD8906EA05152B4383808483CD8851
:1024F0008587028470BD0000002C0140003401403B
:102500000A460021818B4FF6F773194011438183EE
:102510007047000070B5002200230024058C4EF6A1
:10252000FF7635400584038C8488828B48F6FF75DE
:102530002A404FF6FF452A400D884FF6FF7606EAFF
:1025400005252A434DF6FF752B400D8906EA053512
:102550002B434D8806EA05352B430B4DA84202D08C
:102560000A4DA84208D14BF6FF752C408D894FF6D5
:10257000FF7606EA85152C4384808283CD88A0F8F7
:102580004050038470BD0000002C01400034014025
:102590000A460021818B4FF2FF7319404FF6FF73FB
:1025A00003EA02231943818370470021018041809F
:1025B0008180C180018141818181C181704700009A
:1025C000002202881D4B98420ED01D4B98420BD022
:1025D000B0F1804F08D01B4B984205D01A4B98425F
:1025E00002D01A4B984204D14FF68F731A404B8891
:1025F0001A43174B984207D0164B984204D04FF617
:10260000FF431A40CB881A4302808B8883850B884E
:1026100003850A4B98420BD0094B984208D00E4BC9
:10262000984205D00D4B984202D00D4B984201D1F3
:102630000B7A03860123838270470000002C01403F
:10264000003401400004004000080040000C00403D
:1026500000100040001400400040014000440140D0
:10266000004801404FF6FF71818000210180C18048
:10267000418001727047000010B512E0144800F06C
:102680000DF9C4B2302C00DA0BE012490868411C85
:10269000104A116010490C5421460D4800F003F90E
:1026A00000BF40F225510A4800F03CF80028E5D16F
:1026B00008480068062805D1002006490860012066
:1026C0000649086040F22551014800F009F810BDA4
:1026D000003801401C000020D80000201800002015
:1026E00001F40072B2F5007F00D100BFCA4302803E
:1026F000704721B1828942F40052828104E08289CC
:102700004DF6FF731A408281704702460020B1F5F2
:10271000007F00D100BF13880B400BB1012000E007
:102720000020704770B502460024002300250020D9
:1027300040F66A16B14200D100BFC1F3421501F064
:102740001F03012606FA03F3012D02D196893340B7
:1027500006E0022D02D1168A334001E0968A33400A
:102760000C12012606FA04F41688344013B10CB199
:10277000012000E0002070BDF0B5034600240026D3
:102780000025002040F66A17B94200D100BF184664
:10279000C1F3421401F01F06012707FA06F5012CC8
:1027A00001D10C3004E0022C01D1103000E01430D3
:1027B0001AB107682F43076002E00768AF4307605C
:1027C000F0BD00002DE9F04786B005460E46002416
:1027D000A24600BFA1460027B08900B100BF2F4626
:1027E0002C8A4CF6FF700440F08804432C82AC899C
:1027F0004EF6F3100440B0883189084371890843CC
:102800000443AC81AC8A4FF6FF400440B0890443D6
:10281000AC8201A8FFF73EFC1F48874202D1DDF8D9
:1028200010A001E0DDF80CA0A88900F4004040B140
:102830000AEBCA0000EB0A1031684900B0FBF1F85E
:1028400007E00AEBCA0000EB0A1031688900B0FB10
:10285000F1F86420B8FBF0F004012009642101FBC9
:102860001089A88900F4004040B1322000EBC90073
:10287000B0FBF1F000F00700044308E0322000EB69
:1028800009106421B0FBF1F000F00F0004432C812B
:1028900006B0BDE8F0870000003801400146888896
:1028A000C0F308007047C1F308028280704700BF80
:1028B000FEE7000010B54FF0E022126922F004029A
:1028C0004FF0E0231A61C31700EB5373C3F3C70340
:1028D0000D4C2370C31700EB5373D91041F28832AB
:1028E00051430522094B1A804FF0E022126942F051
:1028F00002024FF0E0231A611A465161126942F058
:1029000001021A6110BD0000140000201600002012
:1029100070B504460E480078012811D10D48008892
:10292000844206DB0B48008894FBF0F52846FEF74E
:1029300041FD0848008894FBF0F100FB114084B28F
:102940004FF47A7104FB01F000F006F870BD00004E
:102950009A000020160000202DE9F04707460026C7
:102960004FF0E020D0F814901148007807FB00F8F1
:1029700000BFFEF70FFA4FF0E020856911E04FF03D
:10298000E0208469AC420CD0AC4202D2281B064441
:1029900003E0A9EB0400284406442546464500D33D
:1029A00000E0ECE700BFFEF715FABDE8F087000095
:1029B000140000201CB54FF48050009001208DF8C9
:1029C000060000208DF804000C208DF805006846F4
:1029D000FDF798FD0C210120FDF7DEFD4FF480404E
:1029E000009001208DF8060000208DF804000C20D6
:1029F0008DF805006846FDF785FD0E210120FDF7E5
:102A0000CBFD4FF40040009001208DF8060000201F
:102A10008DF804000C208DF805006846FDF772FD66
:102A20000F210120FDF7B8FD4FF4807000900120C8
:102A30008DF8060000208DF804000C208DF80500AC
:102A40006846FDF75FFD08210020FDF7A5FD1CBDD0
:102A500008B54FF40070ADF8000003208DF80200B7
:102A600018208DF8030069460748FDF7B5FD4FF4BF
:102A70008060ADF8000004208DF80300694602482C
:102A8000FDF7AAFD08BD00000008014008B5482078
:102A90008DF803004FF47040ADF800006946064819
:102AA000FDF79AFD4FF48070ADF8000069460348C9
:102AB000FDF792FD08BD0000000C01400008014038
:102AC00010B500F023FAFFF7E1FFFFF773FF00F006
:102AD000F9F910BD10B54820FFF7ECFE00F01AF828
:102AE00000F0F4FB00F036FAFFF7EAFF4FF4A060C5
:102AF000FDF7C0FEFDF7C8FE0A23044A0021044882
:102B0000FEF786FAFEF75EFA002010BDF401002001
:102B1000812F000810B500F023F900F0C1F800F093
:102B200053F910BD10B50446012C17D100201849E7
:102B300008600120174908601749086000201749FC
:102B4000086001201649086000201649086001202D
:102B50001549086000201549086016E001200C495D
:102B6000086000200B4908600B49086001200B49F0
:102B7000086000200A49086001200A490860002016
:102B80000949086001200949086000F011F810BDEA
:102B90002000002024000020280000202C0000201D
:102BA0003000002034000020380000203C000020CD
:102BB00010B53248006820B910213148FDF7E9FD11
:102BC00003E010212E48FDF7E6FD2E48006820B9ED
:102BD00020212B48FDF7DDFD03E020212848FDF7EB
:102BE000DAFD2948006820B940212548FDF7D1FDCC
:102BF00003E040212248FDF7CEFD2448006820B9BB
:102C000080211F48FDF7C5FD03E080211C48FDF72A
:102C1000C2FD1F48006820B901211948FDF7B9FD20
:102C200003E001211648FDF7B6FD1A48006820B9F7
:102C300002211348FDF7ADFD03E002211048FDF726
:102C4000AAFD1548006828B94FF480610C48FDF7CB
:102C5000A0FD04E04FF480610948FDF79CFD0F489A
:102C6000006828B94FF400610548FDF792FD04E0C3
:102C70004FF400610248FDF78EFD10BD20000020DA
:102C8000000C014024000020280000202C0000201F
:102C90003000002034000020380000203C000020DC
:102CA00008B518208DF8030003208DF80200C0201D
:102CB000ADF8000069461348FDF78EFC4FF44070F4
:102CC000ADF8000069461048FDF786FC10208DF82D
:102CD000030003208DF8020040F60340ADF8000029
:102CE00069460948FDF778FC01210848FDF700FD19
:102CF000F020ADF8000069460348FDF76DFCFFF7D2
:102D000057FF08BD00080140000C014000013000E1
:102D100000B503460A4613B90D48026015E0012BC1
:102D200007D11AB110460B4908600EE0094802604D
:102D30000BE0022B07D11AB110460749086004E0E6
:102D40000548026001E00548026000F01FF800BD80
:102D50004000002044000020480000204C000020DB
:102D600010B501210420FFF785F901210820FFF7A4
:102D700081F901210220FFF76DF901210420FFF7FD
:102D800069F901210846FFF775F910BD0848008868
:102D90000849088008480088091D088007480088FD
:102DA0000749088007480088091D0880704700000F
:102DB000400000203C080040440000204800002063
:102DC000340400404C00002000B587B004A8FFF791
:102DD00049FC0020ADF8120040F2E730ADF81400D5
:102DE0000020ADF81000ADF8160004A92B48FFF73D
:102DF000E7FB04A8FFF736FC0020ADF81200ADF8A1
:102E00001000ADF8160040F2E730ADF8140004A948
:102E10002348FFF7D5FB6846FFF7C7FB6020ADF8F6
:102E200000000020ADF808000120ADF802000020ED
:102E3000ADF8060069461948FFF75CFA0821174803
:102E4000FFF7A4FA69461548FFF7AAFA08211348C4
:102E5000FFF7F8FA01211148FFF734FA01210F4872
:102E6000FFF73CFA69460E48FFF7FAFA08210C48CA
:102E7000FFF746FB69460A48FFF74CFB0821084864
:102E8000FFF786FB01210648FFF71CFA01210448E1
:102E9000FFF724FAFFF77AFF07B000BD00040040F7
:102EA0000008004008B525208DF8000001208DF8AD
:102EB000030003208DF801008DF802006846FDF73D
:102EC000A1FC08BD08B528208DF8000001208DF870
:102ED000030000208DF801008DF802006846FDF720
:102EE00091FC17208DF8000001208DF803008DF86B
:102EF00001008DF802006846FDF784FC08BD10B59E
:102F0000012144F21400FFF7B5F810BD10B50121FE
:102F10000920FFF7AFF801210420FFF7ABF810BD3F
:102F200010B501210948FDF734FC0949096844F648
:102F30002062501AFFF710FD01210448FDF72BFC19
:102F400003480068FFF708FD10BD000000080140BD
:102F50005000002008B501210420FFF78BF8102055
:102F60008DF8030003208DF802000120ADF8000069
:102F700069460248FDF730FB08BD0000000801402B
:102F800070B50446002500BF13490620FDF7F6FC86
:102F90001249086010490520FDF7F0FC104908604F
:102FA000FDF712F9054607230E4A00210E48FEF7E9
:102FB0002FF808230D4A00210D48FEF729F80923B0
:102FC0000C4A00210C48FEF723F80A20FEF79CF972
:102FD0002846FDF7FDF870BD70000020600000205D
:102FE00064000020F4090020FD020008F40A00201B
:102FF000A1070008F41A00203130000870B504461B
:103000000D46002006490860064B0022114606487E
:103010000068FEF711FB00200449086070BD000045
:1030200068000020700000206C0000205400002088
:1030300008B500209949086001210420FFF71AF81B
:1030400010208DF8030003208DF802000220ADF857
:10305000000069469248FDF7BFFA924A0021924863
:103060000068FDF7D5FC18E18C48006801286ED196
:103070008C4A00218D480068FDF7CAFC0024FDF74A
:10308000A3F804468A480078303820B18848007890
:103090003038012871D14FF400518648FDF77BFB91
:1030A000834909782039C8B200F02EF9804949785F
:1030B0002039C8B200F028F97D4989782039C8B292
:1030C00000F022F97A49C9782039C8B200F01CF919
:1030D000774909792039C8B200F016F9744909789E
:1030E000A1F13000FFF71EFD71484078303820B95B
:1030F00000210846FFF70CFE0BE06D4840783038A1
:10310000C0EB00104FF4E67202EB80010020FFF7E5
:10311000FFFD67488078303820B900210120FFF793
:10312000F7FD0BE0624880783038C0EB00104FF4B8
:10313000E67202EB80010120FFF7EAFD5C48C078EF
:10314000303828B900210220FFF7E2FD0CE068E0EA
:103150005748C0783038C0EB00104FF4E67202EBED
:1031600080010220FFF7D4FD51480079303828B99A
:1031700000210320FFF7CCFD0CE047E04C4800792C
:103180003038C0EB00104FF4E67202EB80010320F0
:10319000FFF7BEFD48480088A0F5E6703C2190FB93
:1031A000F1F0C5B2284600F0AFF84348001D008892
:1031B000A0F5E6703C2190FBF1F0C5B2284600F086
:1031C000A3F83E480088A0F5E6703C2190FBF1F0A2
:1031D000C5B2284600F098F83848001D0088A0F5D0
:1031E000E6703C2190FBF1F0C5B2284600F08CF867
:1031F0002F4840793038012804D102212848FDF7B2
:10320000CAFA03E002212648FDF7C3FA0020234949
:1032100008602046FCF7DCFF24480068FDF714FD39
:1032200000BF27480068C0B301202649086040F667
:10323000F610254908601C480068FDF705FD00BF31
:10324000204800680028FBD101201E4908604FF487
:103250002F701D49086014480068FDF7F5FC00BF99
:10326000184800680028FBD101201649086040F288
:103270007260154908600C480068FDF7E5FC00BF66
:10328000104800680028FBD1064A00210648006863
:10329000FDF7BEFB00200A490860E5E618000020A3
:1032A0000008014070000020600000206400002041
:1032B000D8000020001001403C08004034040040C9
:1032C0005C00002054000020500000201FB5FFF7D4
:1032D00016FEFFF7BDFBFFF7E5FD094B0FCB8DE8B1
:1032E0000F0069460748FFF76DFA012240F22551A9
:1032F0000448FFF741FA01210248FFF7FAF91FBD20
:10330000283300080038014010B50446214605481E
:10331000FFF7C9FA00BF40210248FFF7F6F900287D
:10332000F9D010BD0038014000C2010000000000CB
:1033300000000C000000000000000100020001007D
:10334000030001000200010004000100020001006E
:10335000030001000200010005000100020001005D
:10336000030001000200010004000100020001004E
:10337000030001000200010006000100020001003C
:10338000030001000200010004000100020001002E
:10339000030001000200010005000100020001001D
:1033A000030001000200010004000100020001000E
:1033B00003000100020001000700010002000100FB
:1033C00003000100020001000400010002000100EE
:1033D00003000100020001000500010002000100DD
:1033E00003000100020001000400010002000100CE
:1033F00003000100020001000600010002000100BC
:1034000003000100020001000400010002000100AD
:10341000030001000200010005000100020001009C
:10342000030001000200010004000100020001008D
:1034300003000100020001005834000800000020D1
:10344000D80000002801000830350008D80000200E
:10345000C02F000044010008000000000102030426
:103460000102030406070809020406080000000020
:10347000000000000000000001000000000000004B
:10348000000000000100000000000000010000003A
:10349000000000000100000000000000000000002B
:1034A00000000000000000007206000000000000A4
:1034B000000000000000000000000000000000000C
:1034C00000000000000000000000000000000000FC
:1034D00000000000000000000000000000000000EC
:1034E00000000000000000000000000000000000DC
:1034F00000000000000000000000000000000000CC
:1035000000000000000000000000000000000000BB
:1035100000000000000000000000000000000000AB
:10352000000000000000000000000000000000009B
:04000005080000ED02
:00000001FF
